S01200004932435F4452495645522E7372656329
S11300000C942A000C9447000C9447000C9447006D
S11300100C9447000C9447000C9447000C94470040
S11300200C9447000C9447000C9447000C94470030
S11300300C9447000C9447000C9447000C94470020
S11300400C9447000C9447000C9447000C94470010
S11300500C94470011241FBECFE5D8E0DEBFCDBF0E
S113006010E0A0E6B0E0E0E9F1E002C005900D92F6
S1130070A236B107D9F720E0A2E6B0E001C01D9294
S1130080A236B207E1F70E9449000C94C6000C9412
S11300900000CF93DF931F92CDB7DEB70E946D00AF
S11300A00E94740080916000880F0E94840082E4A2
S11300B00E949E008FEF87BB0E94BA00809160006F
S11300C0880F81600E949100CE0101960E94AB00CE
S11300D0898188BB0E948000FFCF8AE080B986B7FF
S11300E0846086BF81E0089584EA86BF06B607FE71
S11300F0FDCF91B1987F81E0983009F080E00895B8
S113010084E986BF81E0089583B984E886BF06B692
S113011007FEFDCF91B1987F81E0983109F080E02E
S1130120089583B984E886BF06B607FEFDCF91B172
S1130130987F81E0903409F080E0089583B984E8E1
S113014086BF06B607FEFDCF91B1987F81E0983255
S113015009F080E0089524E826BF06B607FEFDCF27
S113016023B1FC01208391B1987F81E0983509F097
S113017080E0089584EA86BF06B607FEFDCF91B1FC
S1130180987F81E0903109F080E00895F894FFCFE2
S1050190150054
S9030000FC
