S01100004932435F534C4156452E737265637B
S11300000C942A000C9434000C9434000C943400A6
S11300100C9434000C9434000C9434000C9434008C
S11300200C9434000C9434000C9434000C9434007C
S11300300C9434000C9434000C9434000C9434006C
S11300400C9434000C9434000C9434000C9434005C
S11300500C94340011241FBECFE5D8E0DEBFCDBF21
S11300600E9436000C9484000C940000CF93DF931C
S11300701F92CDB7DEB78FEF87BB85E10E944E009C
S11300800E945200CE0101960E945E00898188BBC5
S11300900E946C0083E40E947800FFCF880F82B92D
S11300A081E0089594EC04C096BF06B607FEFDCF28
S11300B081B1887F8036C1F781E00895FC0184EC2A
S11300C086BF06B607FEFDCF91B1987F9038E1F761
S11300D083B1808381E0089594EC04C096BF06B692
S11300E007FEFDCF81B1887F883AC1F781E008958A
S11300F083B984E886BF06B607FEFDCF81B1887F49
S10F0100803CE1F781E00895F894FFCF03
S9030000FC
